{
  "contractName": "Article",
  "abi": [
    {
      "inputs": [],
      "payable": false,
      "stateMutability": "nonpayable",
      "type": "constructor"
    },
    {
      "constant": true,
      "inputs": [],
      "name": "lastArtist",
      "outputs": [
        {
          "internalType": "uint256",
          "name": "",
          "type": "uint256"
        }
      ],
      "payable": false,
      "stateMutability": "view",
      "type": "function"
    },
    {
      "constant": true,
      "inputs": [],
      "name": "lastUser",
      "outputs": [
        {
          "internalType": "uint256",
          "name": "",
          "type": "uint256"
        }
      ],
      "payable": false,
      "stateMutability": "view",
      "type": "function"
    },
    {
      "constant": true,
      "inputs": [],
      "name": "owner",
      "outputs": [
        {
          "internalType": "address",
          "name": "",
          "type": "address"
        }
      ],
      "payable": false,
      "stateMutability": "view",
      "type": "function"
    },
    {
      "constant": true,
      "inputs": [
        {
          "internalType": "uint256",
          "name": "",
          "type": "uint256"
        }
      ],
      "name": "posts",
      "outputs": [
        {
          "internalType": "uint256",
          "name": "id",
          "type": "uint256"
        },
        {
          "internalType": "string",
          "name": "title",
          "type": "string"
        },
        {
          "internalType": "string",
          "name": "description",
          "type": "string"
        },
        {
          "internalType": "uint256",
          "name": "upVotes",
          "type": "uint256"
        },
        {
          "internalType": "uint256",
          "name": "downVotes",
          "type": "uint256"
        },
        {
          "internalType": "uint256",
          "name": "tipAmount",
          "type": "uint256"
        },
        {
          "internalType": "string",
          "name": "imgHash",
          "type": "string"
        },
        {
          "internalType": "address payable",
          "name": "author",
          "type": "address"
        }
      ],
      "payable": false,
      "stateMutability": "view",
      "type": "function"
    },
    {
      "constant": true,
      "inputs": [],
      "name": "getRole",
      "outputs": [
        {
          "internalType": "enum Article.ROLE",
          "name": "",
          "type": "uint8"
        }
      ],
      "payable": false,
      "stateMutability": "view",
      "type": "function"
    },
    {
      "constant": false,
      "inputs": [
        {
          "internalType": "string",
          "name": "name",
          "type": "string"
        }
      ],
      "name": "userRegister",
      "outputs": [],
      "payable": false,
      "stateMutability": "nonpayable",
      "type": "function"
    },
    {
      "constant": false,
      "inputs": [
        {
          "internalType": "string",
          "name": "_name",
          "type": "string"
        }
      ],
      "name": "artistRegister",
      "outputs": [],
      "payable": true,
      "stateMutability": "payable",
      "type": "function"
    },
    {
      "constant": true,
      "inputs": [
        {
          "internalType": "uint256",
          "name": "upvote",
          "type": "uint256"
        }
      ],
      "name": "isBadge",
      "outputs": [
        {
          "internalType": "uint256",
          "name": "",
          "type": "uint256"
        }
      ],
      "payable": false,
      "stateMutability": "view",
      "type": "function"
    },
    {
      "constant": true,
      "inputs": [],
      "name": "userDetail",
      "outputs": [
        {
          "internalType": "uint256",
          "name": "",
          "type": "uint256"
        },
        {
          "internalType": "string",
          "name": "",
          "type": "string"
        }
      ],
      "payable": false,
      "stateMutability": "view",
      "type": "function"
    },
    {
      "constant": false,
      "inputs": [
        {
          "internalType": "string",
          "name": "_title",
          "type": "string"
        },
        {
          "internalType": "string",
          "name": "_description",
          "type": "string"
        },
        {
          "internalType": "string",
          "name": "_img",
          "type": "string"
        }
      ],
      "name": "addPost",
      "outputs": [],
      "payable": false,
      "stateMutability": "nonpayable",
      "type": "function"
    },
    {
      "constant": false,
      "inputs": [
        {
          "internalType": "uint256",
          "name": "postId",
          "type": "uint256"
        }
      ],
      "name": "upVotePost",
      "outputs": [],
      "payable": false,
      "stateMutability": "nonpayable",
      "type": "function"
    },
    {
      "constant": false,
      "inputs": [
        {
          "internalType": "uint256",
          "name": "postId",
          "type": "uint256"
        }
      ],
      "name": "downVotePost",
      "outputs": [],
      "payable": false,
      "stateMutability": "nonpayable",
      "type": "function"
    },
    {
      "constant": true,
      "inputs": [
        {
          "internalType": "uint256",
          "name": "postId",
          "type": "uint256"
        }
      ],
      "name": "getPosts",
      "outputs": [
        {
          "internalType": "uint256",
          "name": "",
          "type": "uint256"
        },
        {
          "internalType": "uint256",
          "name": "",
          "type": "uint256"
        },
        {
          "internalType": "uint256",
          "name": "",
          "type": "uint256"
        },
        {
          "internalType": "string",
          "name": "",
          "type": "string"
        },
        {
          "internalType": "string",
          "name": "",
          "type": "string"
        },
        {
          "internalType": "address",
          "name": "",
          "type": "address"
        },
        {
          "internalType": "string",
          "name": "",
          "type": "string"
        }
      ],
      "payable": false,
      "stateMutability": "view",
      "type": "function"
    },
    {
      "constant": true,
      "inputs": [],
      "name": "getPostCount",
      "outputs": [
        {
          "internalType": "uint256",
          "name": "",
          "type": "uint256"
        }
      ],
      "payable": false,
      "stateMutability": "view",
      "type": "function"
    },
    {
      "constant": false,
      "inputs": [
        {
          "internalType": "uint256",
          "name": "id",
          "type": "uint256"
        }
      ],
      "name": "tipArticleOwner",
      "outputs": [],
      "payable": true,
      "stateMutability": "payable",
      "type": "function"
    }
  ],
  "bytecode": "0x608060405234801561001057600080fd5b50336000806101000a81548173ffffffffffffffffffffffffffffffffffffffff021916908373ffffffffffffffffffffffffffffffffffffffff16021790555060006002819055506000600181905550611e94806100706000396000f3fe6080604052600436106100e85760003560e01c80638da5cb5b1161008a578063c473a27a11610059578063c473a27a14610921578063cc91f77114610970578063e153270e1461099e578063fde0817414610a35576100e8565b80638da5cb5b14610849578063abffc8a6146108a0578063b0b95fa2146108cb578063bcc95407146108f6576100e8565b8063224ae14a116100c6578063224ae14a146104d757806324844ea3146106cd57806343cb94d114610708578063881d97dc14610781576100e8565b80630b1e7f83146100ed5780631d45cddc146102c857806321828f821461049c575b600080fd5b3480156100f957600080fd5b506101266004803603602081101561011057600080fd5b8101908080359060200190929190505050610a6e565b604051808981526020018060200180602001888152602001878152602001868152602001806020018573ffffffffffffffffffffffffffffffffffffffff1673ffffffffffffffffffffffffffffffffffffffff16815260200184810384528b818151815260200191508051906020019080838360005b838110156101b857808201518184015260208101905061019d565b50505050905090810190601f1680156101e55780820380516001836020036101000a031916815260200191505b5084810383528a818151815260200191508051906020019080838360005b8381101561021e578082015181840152602081019050610203565b50505050905090810190601f16801561024b5780820380516001836020036101000a031916815260200191505b50848103825286818151815260200191508051906020019080838360005b83811015610284578082015181840152602081019050610269565b50505050905090810190601f1680156102b15780820380516001836020036101000a031916815260200191505b509b50505050505050505050505060405180910390f35b3480156102d457600080fd5b50610301600480360360208110156102eb57600080fd5b8101908080359060200190929190505050610cab565b6040518088815260200187815260200186815260200180602001806020018573ffffffffffffffffffffffffffffffffffffffff1673ffffffffffffffffffffffffffffffffffffffff16815260200180602001848103845288818151815260200191508051906020019080838360005b8381101561038d578082015181840152602081019050610372565b50505050905090810190601f1680156103ba5780820380516001836020036101000a031916815260200191505b50848103835287818151815260200191508051906020019080838360005b838110156103f35780820151818401526020810190506103d8565b50505050905090810190601f1680156104205780820380516001836020036101000a031916815260200191505b50848103825285818151815260200191508051906020019080838360005b8381101561045957808201518184015260208101905061043e565b50505050905090810190601f1680156104865780820380516001836020036101000a031916815260200191505b509a505050505050505050505060405180910390f35b3480156104a857600080fd5b506104d5600480360360208110156104bf57600080fd5b8101908080359060200190929190505050610f07565b005b3480156104e357600080fd5b506106cb600480360360608110156104fa57600080fd5b810190808035906020019064010000000081111561051757600080fd5b82018360208201111561052957600080fd5b8035906020019184600183028401116401000000008311171561054b57600080fd5b91908080601f016020809104026020016040519081016040528093929190818152602001838380828437600081840152601f19601f820116905080830192505050505050509192919290803590602001906401000000008111156105ae57600080fd5b8201836020820111156105c057600080fd5b803590602001918460018302840111640100000000831117156105e257600080fd5b91908080601f016020809104026020016040519081016040528093929190818152602001838380828437600081840152601f19601f8201169050808301925050505050505091929192908035906020019064010000000081111561064557600080fd5b82018360208201111561065757600080fd5b8035906020019184600183028401116401000000008311171561067957600080fd5b91908080601f016020809104026020016040519081016040528093929190818152602001838380828437600081840152601f19601f820116905080830192505050505050509192919290505050610f38565b005b3480156106d957600080fd5b50610706600480360360208110156106f057600080fd5b8101908080359060200190929190505050611053565b005b61077f6004803603602081101561071e57600080fd5b810190808035906020019064010000000081111561073b57600080fd5b82018360208201111561074d57600080fd5b8035906020019184600183028401116401000000008311171561076f57600080fd5b9091929391929390505050611084565b005b34801561078d57600080fd5b50610847600480360360208110156107a457600080fd5b81019080803590602001906401000000008111156107c157600080fd5b8201836020820111156107d357600080fd5b803590602001918460018302840111640100000000831117156107f557600080fd5b91908080601f016020809104026020016040519081016040528093929190818152602001838380828437600081840152601f19601f820116905080830192505050505050509192919290505050611458565b005b34801561085557600080fd5b5061085e6114f7565b604051808273ffffffffffffffffffffffffffffffffffffffff1673ffffffffffffffffffffffffffffffffffffffff16815260200191505060405180910390f35b3480156108ac57600080fd5b506108b561151c565b6040518082815260200191505060405180910390f35b3480156108d757600080fd5b506108e0611522565b6040518082815260200191505060405180910390f35b34801561090257600080fd5b5061090b611528565b6040518082815260200191505060405180910390f35b34801561092d57600080fd5b5061095a6004803603602081101561094457600080fd5b8101908080359060200190929190505050611535565b6040518082815260200191505060405180910390f35b61099c6004803603602081101561098657600080fd5b810190808035906020019092919050505061155e565b005b3480156109aa57600080fd5b506109b361194b565b6040518083815260200180602001828103825283818151815260200191508051906020019080838360005b838110156109f95780820151818401526020810190506109de565b50505050905090810190601f168015610a265780820380516001836020036101000a031916815260200191505b50935050505060405180910390f35b348015610a4157600080fd5b50610a4a611a78565b60405180826002811115610a5a57fe5b60ff16815260200191505060405180910390f35b60068181548110610a7b57fe5b9060005260206000209060080201600091509050806000015490806001018054600181600116156101000203166002900480601f016020809104026020016040519081016040528092919081815260200182805460018160011615610100020316600290048015610b2d5780601f10610b0257610100808354040283529160200191610b2d565b820191906000526020600020905b815481529060010190602001808311610b1057829003601f168201915b505050505090806002018054600181600116156101000203166002900480601f016020809104026020016040519081016040528092919081815260200182805460018160011615610100020316600290048015610bcb5780601f10610ba057610100808354040283529160200191610bcb565b820191906000526020600020905b815481529060010190602001808311610bae57829003601f168201915b505050505090806003015490806004015490806005015490806006018054600181600116156101000203166002900480601f016020809104026020016040519081016040528092919081815260200182805460018160011615610100020316600290048015610c7b5780601f10610c5057610100808354040283529160200191610c7b565b820191906000526020600020905b815481529060010190602001808311610c5e57829003601f168201915b5050505050908060070160009054906101000a900473ffffffffffffffffffffffffffffffffffffffff16905088565b600080600060608060006060600060068981548110610cc657fe5b9060005260206000209060080201905080600001548160030154826004015483600101846002018560070160009054906101000a900473ffffffffffffffffffffffffffffffffffffffff1686600601838054600181600116156101000203166002900480601f016020809104026020016040519081016040528092919081815260200182805460018160011615610100020316600290048015610dab5780601f10610d8057610100808354040283529160200191610dab565b820191906000526020600020905b815481529060010190602001808311610d8e57829003601f168201915b50505050509350828054600181600116156101000203166002900480601f016020809104026020016040519081016040528092919081815260200182805460018160011615610100020316600290048015610e475780601f10610e1c57610100808354040283529160200191610e47565b820191906000526020600020905b815481529060010190602001808311610e2a57829003601f168201915b50505050509250819150808054600181600116156101000203166002900480601f016020809104026020016040519081016040528092919081815260200182805460018160011615610100020316600290048015610ee65780601f10610ebb57610100808354040283529160200191610ee6565b820191906000526020600020905b815481529060010190602001808311610ec957829003601f168201915b50505050509050975097509750975097509750975050919395979092949650565b60068181548110610f1457fe5b90600052602060002090600802016003016000815480929190600101919050555050565b60068054809190600101610f4c9190611b23565b506000825111610f5b57600080fd5b6000835111610f6957600080fd5b6000600660016006805490500381548110610f8057fe5b906000526020600020906008020190506001600680549050038160000181905550338160070160006101000a81548173ffffffffffffffffffffffffffffffffffffffff021916908373ffffffffffffffffffffffffffffffffffffffff1602179055506000816003018190555060008160040181905550600081600501819055508381600101908051906020019061101a929190611b55565b5082816002019080519060200190611033929190611b55565b508181600601908051906020019061104c929190611b55565b5050505050565b6006818154811061106057fe5b90600052602060002090600802016004016000815480929190600101919050555050565b66b1a2bc2ec500003414611100576040517f08c379a00000000000000000000000000000000000000000000000000000000081526004018080602001828103825260178152602001807f41727469737420526567697374726174696f6e2066656500000000000000000081525060200191505060405180910390fd5b6000600460003373ffffffffffffffffffffffffffffffffffffffff1673ffffffffffffffffffffffffffffffffffffffff16815260200190815260200160002054146111b5576040517f08c379a00000000000000000000000000000000000000000000000000000000081526004018080602001828103825260108152602001807f416c72656164792072656769737465720000000000000000000000000000000081525060200191505060405180910390fd5b6002600081548092919060010191905055506000600560003373ffffffffffffffffffffffffffffffffffffffff1673ffffffffffffffffffffffffffffffffffffffff1681526020019081526020016000206000015414156112605761125f82828080601f016020809104026020016040519081016040528093929190818152602001838380828437600081840152601f19601f82011690508083019250505050505050611458565b5b611268611bd5565b6040518060a001604052806002548152602001600560003373ffffffffffffffffffffffffffffffffffffffff1673ffffffffffffffffffffffffffffffffffffffff1681526020019081526020016000206000015481526020013373ffffffffffffffffffffffffffffffffffffffff16815260200184848080601f016020809104026020016040519081016040528093929190818152602001838380828437600081840152601f19601f82011690508083019250505050505050815260200160006040519080825280602002602001820160405280156113595781602001602082028038833980820191505090505b508152509050600254600460003373ffffffffffffffffffffffffffffffffffffffff1673ffffffffffffffffffffffffffffffffffffffff1681526020019081526020016000208190555080600360006002548152602001908152602001600020600082015181600001556020820151816001015560408201518160020160006101000a81548173ffffffffffffffffffffffffffffffffffffffff021916908373ffffffffffffffffffffffffffffffffffffffff1602179055506060820151816003019080519060200190611432929190611c1a565b50608082015181600401908051906020019061144f929190611c9a565b50905050505050565b60018060008282540192505081905550611470611ce7565b6040518060400160405280600154815260200183815250905080600560003373ffffffffffffffffffffffffffffffffffffffff1673ffffffffffffffffffffffffffffffffffffffff1681526020019081526020016000206000820151816000015560208201518160010190805190602001906114ef929190611c1a565b509050505050565b6000809054906101000a900473ffffffffffffffffffffffffffffffffffffffff1681565b60025481565b60015481565b6000600680549050905090565b600060026001548161154357fe5b048211156115545760019050611559565b600090505b919050565b600081101561156c57600080fd5b611574611d01565b6006828154811061158157fe5b90600052602060002090600802016040518061010001604052908160008201548152602001600182018054600181600116156101000203166002900480601f01602080910402602001604051908101604052809291908181526020018280546001816001161561010002031660029004801561163e5780601f106116135761010080835404028352916020019161163e565b820191906000526020600020905b81548152906001019060200180831161162157829003601f168201915b50505050508152602001600282018054600181600116156101000203166002900480601f0160208091040260200160405190810160405280929190818152602001828054600181600116156101000203166002900480156116e05780601f106116b5576101008083540402835291602001916116e0565b820191906000526020600020905b8154815290600101906020018083116116c357829003601f168201915b50505050508152602001600382015481526020016004820154815260200160058201548152602001600682018054600181600116156101000203166002900480601f0160208091040260200160405190810160405280929190818152602001828054600181600116156101000203166002900480156117a05780601f10611775576101008083540402835291602001916117a0565b820191906000526020600020905b81548152906001019060200180831161178357829003601f168201915b505050505081526020016007820160009054906101000a900473ffffffffffffffffffffffffffffffffffffffff1673ffffffffffffffffffffffffffffffffffffffff1673ffffffffffffffffffffffffffffffffffffffff1681525050905060008160e0015190508073ffffffffffffffffffffffffffffffffffffffff166108fc349081150290604051600060405180830381858888f19350505050158015611850573d6000803e3d6000fd5b50348260a00151018260a0018181525050816006848154811061186f57fe5b90600052602060002090600802016000820151816000015560208201518160010190805190602001906118a3929190611c1a565b5060408201518160020190805190602001906118c0929190611c1a565b50606082015181600301556080820151816004015560a0820151816005015560c08201518160060190805190602001906118fb929190611c1a565b5060e08201518160070160006101000a81548173ffffffffffffffffffffffffffffffffffffffff021916908373ffffffffffffffffffffffffffffffffffffffff160217905550905050505050565b60006060600560003373ffffffffffffffffffffffffffffffffffffffff1673ffffffffffffffffffffffffffffffffffffffff16815260200190815260200160002060000154600560003373ffffffffffffffffffffffffffffffffffffffff1673ffffffffffffffffffffffffffffffffffffffff168152602001908152602001600020600101808054600181600116156101000203166002900480601f016020809104026020016040519081016040528092919081815260200182805460018160011615610100020316600290048015611a695780601f10611a3e57610100808354040283529160200191611a69565b820191906000526020600020905b815481529060010190602001808311611a4c57829003601f168201915b50505050509050915091509091565b600080600460003373ffffffffffffffffffffffffffffffffffffffff1673ffffffffffffffffffffffffffffffffffffffff168152602001908152602001600020541415611b1b576000600560003373ffffffffffffffffffffffffffffffffffffffff1673ffffffffffffffffffffffffffffffffffffffff168152602001908152602001600020600001541415611b13576000611b16565b60025b611b1e565b60015b905090565b815481835581811115611b5057600802816008028360005260206000209182019101611b4f9190611d5c565b5b505050565b828054600181600116156101000203166002900490600052602060002090601f016020900481019282601f10611b9657805160ff1916838001178555611bc4565b82800160010185558215611bc4579182015b82811115611bc3578251825591602001919060010190611ba8565b5b509050611bd19190611df2565b5090565b6040518060a001604052806000815260200160008152602001600073ffffffffffffffffffffffffffffffffffffffff16815260200160608152602001606081525090565b828054600181600116156101000203166002900490600052602060002090601f016020900481019282601f10611c5b57805160ff1916838001178555611c89565b82800160010185558215611c89579182015b82811115611c88578251825591602001919060010190611c6d565b5b509050611c969190611df2565b5090565b828054828255906000526020600020908101928215611cd6579160200282015b82811115611cd5578251825591602001919060010190611cba565b5b509050611ce39190611df2565b5090565b604051806040016040528060008152602001606081525090565b60405180610100016040528060008152602001606081526020016060815260200160008152602001600081526020016000815260200160608152602001600073ffffffffffffffffffffffffffffffffffffffff1681525090565b611def91905b80821115611deb57600080820160009055600182016000611d839190611e17565b600282016000611d939190611e17565b600382016000905560048201600090556005820160009055600682016000611dbb9190611e17565b6007820160006101000a81549073ffffffffffffffffffffffffffffffffffffffff021916905550600801611d62565b5090565b90565b611e1491905b80821115611e10576000816000905550600101611df8565b5090565b90565b50805460018160011615610100020316600290046000825580601f10611e3d5750611e5c565b601f016020900490600052602060002090810190611e5b9190611df2565b5b5056fea265627a7a72315820f1f031e3d77eb22cf5a2a6ecd2579250b1d26494c782b8eff07410fe789f7dec64736f6c63430005100032",
  "source": "// SPDX-License-Identifier: GPL-3.0\npragma solidity ^0.5.0;\n\n\ncontract Article{\n    \n    address public owner;\n    uint public lastUser;\n     uint public lastArtist;\n\n    struct Post{\n        uint id;\n        string title;\n        string description;\n        uint upVotes;\n        uint downVotes;\n        uint tipAmount;\n        string imgHash;\n        address payable author;\n        \n    }\n    struct User{\n        uint uId;\n        string name;\n    }\n\n     struct Artist{\n        uint aId;\n        uint uId;\n        address payable artistAddress;\n        string name;\n        uint[] songsUploaded;\n    }\n\n    enum ROLE{UNREGISTERED,ARTIST,USER}      //keep track of type of user\n\n    mapping(uint => Artist) idToArtist;\n    mapping(address => uint)artistId;\n    mapping (address => User) userId;\n\n    modifier onlyUser{\n        require(userId[msg.sender].uId != 0,\"Not a user\");\n        _;\n    }\n\n    modifier onlyArtist{\n        require(artistId[msg.sender] !=0,\"Not an artists\");\n        _;\n    }\n\n    constructor() public{\n        owner = msg.sender;\n        lastArtist = 0;\n        lastUser = 0;\n    }\n\n     function getRole() external view returns(ROLE) {\n        return ((artistId[msg.sender]!=0) ? ROLE.ARTIST : (userId[msg.sender].uId != 0) ? ROLE.USER : ROLE.UNREGISTERED);\n    }\n\n     function userRegister(string memory name) public{\n        lastUser+=1;\n        User memory newUser = User(lastUser,name);\n       userId[msg.sender] = newUser;\n    }\n\n    function artistRegister(string calldata _name) external payable{\n        require(msg.value == 0.05 ether, \"Artist Registration fee\");\n        require(artistId[msg.sender] == 0,\"Already register\");\n        lastArtist++;\n\n        //every artists is also a user\n        if(userId[msg.sender].uId == 0){\n            userRegister(_name);\n        }\n\n        Artist memory newArtist = Artist(lastArtist,userId[msg.sender].uId,msg.sender,_name,new uint[](0));\n        artistId[msg.sender] = lastArtist;\n        idToArtist[lastArtist] = newArtist;\n    }\n\n    function isBadge(uint upvote) public view returns(uint){\n        if(upvote > lastUser/2)return 1;\n        else return 0;\n    }\n\n function userDetail() external view returns(uint,string memory){\n        return (userId[msg.sender].uId,userId[msg.sender].name);\n    }\n\n\n    Post[] public posts;\n\n  \n\n    function addPost(string memory _title,string memory _description,string memory _img) public{\n       posts.length++;\n        // Make sure image description exists\n        require(bytes(_description).length > 0);\n        // Make sure image title exists\n        require(bytes(_title).length > 0);\n        Post storage p = posts[posts.length - 1];\n        p.id = posts.length - 1;\n        p.author = msg.sender;\n        p.upVotes = 0;\n        p.downVotes = 0;\n        p.tipAmount =0;\n        p.title = _title;\n        p.description = _description;\n        p.imgHash = _img;\n\n    }\n\n    function upVotePost(uint postId) public{\n        posts[postId].upVotes++;\n    }\n\n    function downVotePost(uint postId) public{\n        posts[postId].downVotes++;\n    }\n\n    function getPosts(uint postId) public view returns(uint, uint, uint, string memory, string memory, address ,string memory) {\n       Post storage p = posts[postId];\n       return (p.id, p.upVotes, p.downVotes,p.title, p.description,p.author,p.imgHash);\n    }\n\n    function getPostCount() public view returns(uint){\n        return posts.length;\n    }\n\n    function tipArticleOwner(uint id) public payable{\n        //make sure author is valid\n       require(id>=0);\n        //f+etch the post\n        Post memory _post = posts[id];\n        //fetch the author\n        address payable _author = _post.author;\n        //pay the author by sending the ether\n        address(_author).transfer(msg.value);\n        _post.tipAmount = _post.tipAmount+msg.value;\n        posts[id] = _post;\n\n    }\n\n}",
  "sourcePath": "D:/newsganache/contracts/Article.sol",
  "compiler": {
    "name": "solc",
    "version": "0.5.16+commit.9c3226ce.Emscripten.clang"
  },
  "schemaVersion": "3.2.3",
  "updatedAt": "2022-04-29T13:31:25.444Z",
  "networkType": "ethereum",
  "devdoc": {
    "methods": {}
  },
  "userdoc": {
    "methods": {}
  }
}