{
  "contractName": "Article",
  "abi": [
    {
      "constant": true,
      "inputs": [
        {
          "internalType": "uint256",
          "name": "",
          "type": "uint256"
        }
      ],
      "name": "posts",
      "outputs": [
        {
          "internalType": "uint256",
          "name": "id",
          "type": "uint256"
        },
        {
          "internalType": "string",
          "name": "title",
          "type": "string"
        },
        {
          "internalType": "string",
          "name": "description",
          "type": "string"
        },
        {
          "internalType": "uint256",
          "name": "upVotes",
          "type": "uint256"
        },
        {
          "internalType": "uint256",
          "name": "downVotes",
          "type": "uint256"
        },
        {
          "internalType": "uint256",
          "name": "tipAmount",
          "type": "uint256"
        },
        {
          "internalType": "address payable",
          "name": "author",
          "type": "address"
        }
      ],
      "payable": false,
      "stateMutability": "view",
      "type": "function"
    },
    {
      "constant": false,
      "inputs": [
        {
          "internalType": "string",
          "name": "_title",
          "type": "string"
        },
        {
          "internalType": "string",
          "name": "_description",
          "type": "string"
        }
      ],
      "name": "addPost",
      "outputs": [],
      "payable": false,
      "stateMutability": "nonpayable",
      "type": "function"
    },
    {
      "constant": false,
      "inputs": [
        {
          "internalType": "uint256",
          "name": "postId",
          "type": "uint256"
        }
      ],
      "name": "upVotePost",
      "outputs": [],
      "payable": false,
      "stateMutability": "nonpayable",
      "type": "function"
    },
    {
      "constant": false,
      "inputs": [
        {
          "internalType": "uint256",
          "name": "postId",
          "type": "uint256"
        }
      ],
      "name": "downVotePost",
      "outputs": [],
      "payable": false,
      "stateMutability": "nonpayable",
      "type": "function"
    },
    {
      "constant": true,
      "inputs": [
        {
          "internalType": "uint256",
          "name": "postId",
          "type": "uint256"
        }
      ],
      "name": "getPosts",
      "outputs": [
        {
          "internalType": "uint256",
          "name": "",
          "type": "uint256"
        },
        {
          "internalType": "uint256",
          "name": "",
          "type": "uint256"
        },
        {
          "internalType": "uint256",
          "name": "",
          "type": "uint256"
        },
        {
          "internalType": "string",
          "name": "",
          "type": "string"
        },
        {
          "internalType": "string",
          "name": "",
          "type": "string"
        },
        {
          "internalType": "address",
          "name": "",
          "type": "address"
        }
      ],
      "payable": false,
      "stateMutability": "view",
      "type": "function"
    },
    {
      "constant": true,
      "inputs": [],
      "name": "getPostCount",
      "outputs": [
        {
          "internalType": "uint256",
          "name": "",
          "type": "uint256"
        }
      ],
      "payable": false,
      "stateMutability": "view",
      "type": "function"
    },
    {
      "constant": false,
      "inputs": [
        {
          "internalType": "uint256",
          "name": "id",
          "type": "uint256"
        }
      ],
      "name": "tipArticleOwner",
      "outputs": [],
      "payable": true,
      "stateMutability": "payable",
      "type": "function"
    }
  ],
  "bytecode": "0x608060405234801561001057600080fd5b50611016806100206000396000f3fe6080604052600436106100705760003560e01c806324844ea31161004e57806324844ea314610387578063b02c6516146103c2578063bcc9540714610521578063cc91f7711461054c57610070565b80630b1e7f83146100755780631d45cddc146101e457806321828f821461034c575b600080fd5b34801561008157600080fd5b506100ae6004803603602081101561009857600080fd5b810190808035906020019092919050505061057a565b6040518088815260200180602001806020018781526020018681526020018581526020018473ffffffffffffffffffffffffffffffffffffffff1673ffffffffffffffffffffffffffffffffffffffff168152602001838103835289818151815260200191508051906020019080838360005b8381101561013c578082015181840152602081019050610121565b50505050905090810190601f1680156101695780820380516001836020036101000a031916815260200191505b50838103825288818151815260200191508051906020019080838360005b838110156101a2578082015181840152602081019050610187565b50505050905090810190601f1680156101cf5780820380516001836020036101000a031916815260200191505b50995050505050505050505060405180910390f35b3480156101f057600080fd5b5061021d6004803603602081101561020757600080fd5b8101908080359060200190929190505050610719565b6040518087815260200186815260200185815260200180602001806020018473ffffffffffffffffffffffffffffffffffffffff1673ffffffffffffffffffffffffffffffffffffffff168152602001838103835286818151815260200191508051906020019080838360005b838110156102a557808201518184015260208101905061028a565b50505050905090810190601f1680156102d25780820380516001836020036101000a031916815260200191505b50838103825285818151815260200191508051906020019080838360005b8381101561030b5780820151818401526020810190506102f0565b50505050905090810190601f1680156103385780820380516001836020036101000a031916815260200191505b509850505050505050505060405180910390f35b34801561035857600080fd5b506103856004803603602081101561036f57600080fd5b81019080803590602001909291905050506108ce565b005b34801561039357600080fd5b506103c0600480360360208110156103aa57600080fd5b81019080803590602001909291905050506108ff565b005b3480156103ce57600080fd5b5061051f600480360360408110156103e557600080fd5b810190808035906020019064010000000081111561040257600080fd5b82018360208201111561041457600080fd5b8035906020019184600183028401116401000000008311171561043657600080fd5b91908080601f016020809104026020016040519081016040528093929190818152602001838380828437600081840152601f19601f8201169050808301925050505050505091929192908035906020019064010000000081111561049957600080fd5b8201836020820111156104ab57600080fd5b803590602001918460018302840111640100000000831117156104cd57600080fd5b91908080601f016020809104026020016040519081016040528093929190818152602001838380828437600081840152601f19601f820116905080830192505050505050509192919290505050610930565b005b34801561052d57600080fd5b50610536610a30565b6040518082815260200191505060405180910390f35b6105786004803603602081101561056257600080fd5b8101908080359060200190929190505050610a3c565b005b6000818154811061058757fe5b9060005260206000209060070201600091509050806000015490806001018054600181600116156101000203166002900480601f0160208091040260200160405190810160405280929190818152602001828054600181600116156101000203166002900480156106395780601f1061060e57610100808354040283529160200191610639565b820191906000526020600020905b81548152906001019060200180831161061c57829003601f168201915b505050505090806002018054600181600116156101000203166002900480601f0160208091040260200160405190810160405280929190818152602001828054600181600116156101000203166002900480156106d75780601f106106ac576101008083540402835291602001916106d7565b820191906000526020600020905b8154815290600101906020018083116106ba57829003601f168201915b5050505050908060030154908060040154908060050154908060060160009054906101000a900473ffffffffffffffffffffffffffffffffffffffff16905087565b60008060006060806000806000888154811061073157fe5b9060005260206000209060070201905080600001548160030154826004015483600101846002018560060160009054906101000a900473ffffffffffffffffffffffffffffffffffffffff16828054600181600116156101000203166002900480601f0160208091040260200160405190810160405280929190818152602001828054600181600116156101000203166002900480156108125780601f106107e757610100808354040283529160200191610812565b820191906000526020600020905b8154815290600101906020018083116107f557829003601f168201915b50505050509250818054600181600116156101000203166002900480601f0160208091040260200160405190810160405280929190818152602001828054600181600116156101000203166002900480156108ae5780601f10610883576101008083540402835291602001916108ae565b820191906000526020600020905b81548152906001019060200180831161089157829003601f168201915b505050505091508090509650965096509650965096505091939550919395565b600081815481106108db57fe5b90600052602060002090600702016003016000815480929190600101919050555050565b6000818154811061090c57fe5b90600052602060002090600702016004016000815480929190600101919050555050565b600080548091906001016109449190610d69565b50600081511161095357600080fd5b600082511161096157600080fd5b6000806001600080549050038154811061097757fe5b906000526020600020906007020190506001600080549050038160000181905550338160060160006101000a81548173ffffffffffffffffffffffffffffffffffffffff021916908373ffffffffffffffffffffffffffffffffffffffff16021790555060008160030181905550600081600401819055506000816005018190555082816001019080519060200190610a11929190610d9b565b5081816002019080519060200190610a2a929190610d9b565b50505050565b60008080549050905090565b6000811015610a4a57600080fd5b610a52610e1b565b60008281548110610a5f57fe5b90600052602060002090600702016040518060e001604052908160008201548152602001600182018054600181600116156101000203166002900480601f016020809104026020016040519081016040528092919081815260200182805460018160011615610100020316600290048015610b1b5780601f10610af057610100808354040283529160200191610b1b565b820191906000526020600020905b815481529060010190602001808311610afe57829003601f168201915b50505050508152602001600282018054600181600116156101000203166002900480601f016020809104026020016040519081016040528092919081815260200182805460018160011615610100020316600290048015610bbd5780601f10610b9257610100808354040283529160200191610bbd565b820191906000526020600020905b815481529060010190602001808311610ba057829003601f168201915b505050505081526020016003820154815260200160048201548152602001600582015481526020016006820160009054906101000a900473ffffffffffffffffffffffffffffffffffffffff1673ffffffffffffffffffffffffffffffffffffffff1673ffffffffffffffffffffffffffffffffffffffff1681525050905060008160c0015190508073ffffffffffffffffffffffffffffffffffffffff166108fc349081150290604051600060405180830381858888f19350505050158015610c8b573d6000803e3d6000fd5b50348260a00151018260a00181815250508160008481548110610caa57fe5b9060005260206000209060070201600082015181600001556020820151816001019080519060200190610cde929190610e6e565b506040820151816002019080519060200190610cfb929190610e6e565b50606082015181600301556080820151816004015560a0820151816005015560c08201518160060160006101000a81548173ffffffffffffffffffffffffffffffffffffffff021916908373ffffffffffffffffffffffffffffffffffffffff160217905550905050505050565b815481835581811115610d9657600702816007028360005260206000209182019101610d959190610eee565b5b505050565b828054600181600116156101000203166002900490600052602060002090601f016020900481019282601f10610ddc57805160ff1916838001178555610e0a565b82800160010185558215610e0a579182015b82811115610e09578251825591602001919060010190610dee565b5b509050610e179190610f74565b5090565b6040518060e00160405280600081526020016060815260200160608152602001600081526020016000815260200160008152602001600073ffffffffffffffffffffffffffffffffffffffff1681525090565b828054600181600116156101000203166002900490600052602060002090601f016020900481019282601f10610eaf57805160ff1916838001178555610edd565b82800160010185558215610edd579182015b82811115610edc578251825591602001919060010190610ec1565b5b509050610eea9190610f74565b5090565b610f7191905b80821115610f6d57600080820160009055600182016000610f159190610f99565b600282016000610f259190610f99565b6003820160009055600482016000905560058201600090556006820160006101000a81549073ffffffffffffffffffffffffffffffffffffffff021916905550600701610ef4565b5090565b90565b610f9691905b80821115610f92576000816000905550600101610f7a565b5090565b90565b50805460018160011615610100020316600290046000825580601f10610fbf5750610fde565b601f016020900490600052602060002090810190610fdd9190610f74565b5b5056fea265627a7a723158208f6b03d8831368850a5088dca773a7c93ce5788a00e54ccc71ff0c82b1525b2464736f6c63430005100032",
  "source": "// SPDX-License-Identifier: GPL-3.0\npragma solidity ^0.5.0;\n\n\ncontract Article{\n    \n    \n    struct Post{\n        uint id;\n        string title;\n        string description;\n        uint upVotes;\n        uint downVotes;\n        uint tipAmount;\n        address payable author;\n        \n    }\n\n\n\n    Post[] public posts;\n\n  \n\n    function addPost(string memory _title,string memory _description) public{\n       posts.length++;\n        // Make sure image description exists\n        require(bytes(_description).length > 0);\n        // Make sure image title exists\n        require(bytes(_title).length > 0);\n        Post storage p = posts[posts.length - 1];\n        p.id = posts.length - 1;\n        p.author = msg.sender;\n        p.upVotes = 0;\n        p.downVotes = 0;\n        p.tipAmount =0;\n        p.title = _title;\n        p.description = _description;\n\n    }\n\n    function upVotePost(uint postId) public{\n        posts[postId].upVotes++;\n    }\n\n    function downVotePost(uint postId) public{\n        posts[postId].downVotes++;\n    }\n\n    function getPosts(uint postId) public view returns(uint, uint, uint, string memory, string memory, address ) {\n       Post storage p = posts[postId];\n       return (p.id, p.upVotes, p.downVotes,p.title, p.description,p.author);\n    }\n\n    function getPostCount() public view returns(uint){\n        return posts.length;\n    }\n\n    function tipArticleOwner(uint id) public payable{\n        //make sure author is valid\n       require(id>=0);\n        //f+etch the post\n        Post memory _post = posts[id];\n        //fetch the author\n        address payable _author = _post.author;\n        //pay the author by sending the ether\n        address(_author).transfer(msg.value);\n        _post.tipAmount = _post.tipAmount+msg.value;\n        posts[id] = _post;\n\n    }\n\n}",
  "sourcePath": "D:/newsganache/contracts/Article.sol",
  "compiler": {
    "name": "solc",
    "version": "0.5.16+commit.9c3226ce.Emscripten.clang"
  },
  "schemaVersion": "3.2.3",
  "updatedAt": "2022-03-23T10:44:10.130Z",
  "networkType": "ethereum",
  "devdoc": {
    "methods": {}
  },
  "userdoc": {
    "methods": {}
  }
}