{
  "contractName": "Article",
  "abi": [
    {
      "constant": true,
      "inputs": [
        {
          "internalType": "uint256",
          "name": "",
          "type": "uint256"
        }
      ],
      "name": "posts",
      "outputs": [
        {
          "internalType": "uint256",
          "name": "id",
          "type": "uint256"
        },
        {
          "internalType": "string",
          "name": "title",
          "type": "string"
        },
        {
          "internalType": "string",
          "name": "description",
          "type": "string"
        },
        {
          "internalType": "uint256",
          "name": "upVotes",
          "type": "uint256"
        },
        {
          "internalType": "uint256",
          "name": "downVotes",
          "type": "uint256"
        },
        {
          "internalType": "uint256",
          "name": "tipAmount",
          "type": "uint256"
        },
        {
          "internalType": "string",
          "name": "imgHash",
          "type": "string"
        },
        {
          "internalType": "address payable",
          "name": "author",
          "type": "address"
        }
      ],
      "payable": false,
      "stateMutability": "view",
      "type": "function"
    },
    {
      "constant": false,
      "inputs": [
        {
          "internalType": "string",
          "name": "_title",
          "type": "string"
        },
        {
          "internalType": "string",
          "name": "_description",
          "type": "string"
        },
        {
          "internalType": "string",
          "name": "_img",
          "type": "string"
        }
      ],
      "name": "addPost",
      "outputs": [],
      "payable": false,
      "stateMutability": "nonpayable",
      "type": "function"
    },
    {
      "constant": false,
      "inputs": [
        {
          "internalType": "uint256",
          "name": "postId",
          "type": "uint256"
        }
      ],
      "name": "upVotePost",
      "outputs": [],
      "payable": false,
      "stateMutability": "nonpayable",
      "type": "function"
    },
    {
      "constant": false,
      "inputs": [
        {
          "internalType": "uint256",
          "name": "postId",
          "type": "uint256"
        }
      ],
      "name": "downVotePost",
      "outputs": [],
      "payable": false,
      "stateMutability": "nonpayable",
      "type": "function"
    },
    {
      "constant": true,
      "inputs": [
        {
          "internalType": "uint256",
          "name": "postId",
          "type": "uint256"
        }
      ],
      "name": "getPosts",
      "outputs": [
        {
          "internalType": "uint256",
          "name": "",
          "type": "uint256"
        },
        {
          "internalType": "uint256",
          "name": "",
          "type": "uint256"
        },
        {
          "internalType": "uint256",
          "name": "",
          "type": "uint256"
        },
        {
          "internalType": "string",
          "name": "",
          "type": "string"
        },
        {
          "internalType": "string",
          "name": "",
          "type": "string"
        },
        {
          "internalType": "address",
          "name": "",
          "type": "address"
        },
        {
          "internalType": "string",
          "name": "",
          "type": "string"
        }
      ],
      "payable": false,
      "stateMutability": "view",
      "type": "function"
    },
    {
      "constant": true,
      "inputs": [],
      "name": "getPostCount",
      "outputs": [
        {
          "internalType": "uint256",
          "name": "",
          "type": "uint256"
        }
      ],
      "payable": false,
      "stateMutability": "view",
      "type": "function"
    },
    {
      "constant": false,
      "inputs": [
        {
          "internalType": "uint256",
          "name": "id",
          "type": "uint256"
        }
      ],
      "name": "tipArticleOwner",
      "outputs": [],
      "payable": true,
      "stateMutability": "payable",
      "type": "function"
    }
  ],
  "bytecode": "0x608060405234801561001057600080fd5b506113bb806100206000396000f3fe6080604052600436106100705760003560e01c8063224ae14a1161004e578063224ae14a1461045f57806324844ea314610655578063bcc9540714610690578063cc91f771146106bb57610070565b80630b1e7f83146100755780631d45cddc1461025057806321828f8214610424575b600080fd5b34801561008157600080fd5b506100ae6004803603602081101561009857600080fd5b81019080803590602001909291905050506106e9565b604051808981526020018060200180602001888152602001878152602001868152602001806020018573ffffffffffffffffffffffffffffffffffffffff1673ffffffffffffffffffffffffffffffffffffffff16815260200184810384528b818151815260200191508051906020019080838360005b83811015610140578082015181840152602081019050610125565b50505050905090810190601f16801561016d5780820380516001836020036101000a031916815260200191505b5084810383528a818151815260200191508051906020019080838360005b838110156101a657808201518184015260208101905061018b565b50505050905090810190601f1680156101d35780820380516001836020036101000a031916815260200191505b50848103825286818151815260200191508051906020019080838360005b8381101561020c5780820151818401526020810190506101f1565b50505050905090810190601f1680156102395780820380516001836020036101000a031916815260200191505b509b50505050505050505050505060405180910390f35b34801561025c57600080fd5b506102896004803603602081101561027357600080fd5b8101908080359060200190929190505050610926565b6040518088815260200187815260200186815260200180602001806020018573ffffffffffffffffffffffffffffffffffffffff1673ffffffffffffffffffffffffffffffffffffffff16815260200180602001848103845288818151815260200191508051906020019080838360005b838110156103155780820151818401526020810190506102fa565b50505050905090810190601f1680156103425780820380516001836020036101000a031916815260200191505b50848103835287818151815260200191508051906020019080838360005b8381101561037b578082015181840152602081019050610360565b50505050905090810190601f1680156103a85780820380516001836020036101000a031916815260200191505b50848103825285818151815260200191508051906020019080838360005b838110156103e15780820151818401526020810190506103c6565b50505050905090810190601f16801561040e5780820380516001836020036101000a031916815260200191505b509a505050505050505050505060405180910390f35b34801561043057600080fd5b5061045d6004803603602081101561044757600080fd5b8101908080359060200190929190505050610b81565b005b34801561046b57600080fd5b506106536004803603606081101561048257600080fd5b810190808035906020019064010000000081111561049f57600080fd5b8201836020820111156104b157600080fd5b803590602001918460018302840111640100000000831117156104d357600080fd5b91908080601f016020809104026020016040519081016040528093929190818152602001838380828437600081840152601f19601f8201169050808301925050505050505091929192908035906020019064010000000081111561053657600080fd5b82018360208201111561054857600080fd5b8035906020019184600183028401116401000000008311171561056a57600080fd5b91908080601f016020809104026020016040519081016040528093929190818152602001838380828437600081840152601f19601f820116905080830192505050505050509192919290803590602001906401000000008111156105cd57600080fd5b8201836020820111156105df57600080fd5b8035906020019184600183028401116401000000008311171561060157600080fd5b91908080601f016020809104026020016040519081016040528093929190818152602001838380828437600081840152601f19601f820116905080830192505050505050509192919290505050610bb2565b005b34801561066157600080fd5b5061068e6004803603602081101561067857600080fd5b8101908080359060200190929190505050610ccc565b005b34801561069c57600080fd5b506106a5610cfd565b6040518082815260200191505060405180910390f35b6106e7600480360360208110156106d157600080fd5b8101908080359060200190929190505050610d09565b005b600081815481106106f657fe5b9060005260206000209060080201600091509050806000015490806001018054600181600116156101000203166002900480601f0160208091040260200160405190810160405280929190818152602001828054600181600116156101000203166002900480156107a85780601f1061077d576101008083540402835291602001916107a8565b820191906000526020600020905b81548152906001019060200180831161078b57829003601f168201915b505050505090806002018054600181600116156101000203166002900480601f0160208091040260200160405190810160405280929190818152602001828054600181600116156101000203166002900480156108465780601f1061081b57610100808354040283529160200191610846565b820191906000526020600020905b81548152906001019060200180831161082957829003601f168201915b505050505090806003015490806004015490806005015490806006018054600181600116156101000203166002900480601f0160208091040260200160405190810160405280929190818152602001828054600181600116156101000203166002900480156108f65780601f106108cb576101008083540402835291602001916108f6565b820191906000526020600020905b8154815290600101906020018083116108d957829003601f168201915b5050505050908060070160009054906101000a900473ffffffffffffffffffffffffffffffffffffffff16905088565b600080600060608060006060600080898154811061094057fe5b9060005260206000209060080201905080600001548160030154826004015483600101846002018560070160009054906101000a900473ffffffffffffffffffffffffffffffffffffffff1686600601838054600181600116156101000203166002900480601f016020809104026020016040519081016040528092919081815260200182805460018160011615610100020316600290048015610a255780601f106109fa57610100808354040283529160200191610a25565b820191906000526020600020905b815481529060010190602001808311610a0857829003601f168201915b50505050509350828054600181600116156101000203166002900480601f016020809104026020016040519081016040528092919081815260200182805460018160011615610100020316600290048015610ac15780601f10610a9657610100808354040283529160200191610ac1565b820191906000526020600020905b815481529060010190602001808311610aa457829003601f168201915b50505050509250819150808054600181600116156101000203166002900480601f016020809104026020016040519081016040528092919081815260200182805460018160011615610100020316600290048015610b605780601f10610b3557610100808354040283529160200191610b60565b820191906000526020600020905b815481529060010190602001808311610b4357829003601f168201915b50505050509050975097509750975097509750975050919395979092949650565b60008181548110610b8e57fe5b90600052602060002090600802016003016000815480929190600101919050555050565b60008054809190600101610bc691906110f6565b506000825111610bd557600080fd5b6000835111610be357600080fd5b60008060016000805490500381548110610bf957fe5b906000526020600020906008020190506001600080549050038160000181905550338160070160006101000a81548173ffffffffffffffffffffffffffffffffffffffff021916908373ffffffffffffffffffffffffffffffffffffffff16021790555060008160030181905550600081600401819055506000816005018190555083816001019080519060200190610c93929190611128565b5082816002019080519060200190610cac929190611128565b5081816006019080519060200190610cc5929190611128565b5050505050565b60008181548110610cd957fe5b90600052602060002090600802016004016000815480929190600101919050555050565b60008080549050905090565b6000811015610d1757600080fd5b610d1f6111a8565b60008281548110610d2c57fe5b90600052602060002090600802016040518061010001604052908160008201548152602001600182018054600181600116156101000203166002900480601f016020809104026020016040519081016040528092919081815260200182805460018160011615610100020316600290048015610de95780601f10610dbe57610100808354040283529160200191610de9565b820191906000526020600020905b815481529060010190602001808311610dcc57829003601f168201915b50505050508152602001600282018054600181600116156101000203166002900480601f016020809104026020016040519081016040528092919081815260200182805460018160011615610100020316600290048015610e8b5780601f10610e6057610100808354040283529160200191610e8b565b820191906000526020600020905b815481529060010190602001808311610e6e57829003601f168201915b50505050508152602001600382015481526020016004820154815260200160058201548152602001600682018054600181600116156101000203166002900480601f016020809104026020016040519081016040528092919081815260200182805460018160011615610100020316600290048015610f4b5780601f10610f2057610100808354040283529160200191610f4b565b820191906000526020600020905b815481529060010190602001808311610f2e57829003601f168201915b505050505081526020016007820160009054906101000a900473ffffffffffffffffffffffffffffffffffffffff1673ffffffffffffffffffffffffffffffffffffffff1673ffffffffffffffffffffffffffffffffffffffff1681525050905060008160e0015190508073ffffffffffffffffffffffffffffffffffffffff166108fc349081150290604051600060405180830381858888f19350505050158015610ffb573d6000803e3d6000fd5b50348260a00151018260a0018181525050816000848154811061101a57fe5b906000526020600020906008020160008201518160000155602082015181600101908051906020019061104e929190611203565b50604082015181600201908051906020019061106b929190611203565b50606082015181600301556080820151816004015560a0820151816005015560c08201518160060190805190602001906110a6929190611203565b5060e08201518160070160006101000a81548173ffffffffffffffffffffffffffffffffffffffff021916908373ffffffffffffffffffffffffffffffffffffffff160217905550905050505050565b815481835581811115611123576008028160080283600052602060002091820191016111229190611283565b5b505050565b828054600181600116156101000203166002900490600052602060002090601f016020900481019282601f1061116957805160ff1916838001178555611197565b82800160010185558215611197579182015b8281111561119657825182559160200191906001019061117b565b5b5090506111a49190611319565b5090565b60405180610100016040528060008152602001606081526020016060815260200160008152602001600081526020016000815260200160608152602001600073ffffffffffffffffffffffffffffffffffffffff1681525090565b828054600181600116156101000203166002900490600052602060002090601f016020900481019282601f1061124457805160ff1916838001178555611272565b82800160010185558215611272579182015b82811115611271578251825591602001919060010190611256565b5b50905061127f9190611319565b5090565b61131691905b80821115611312576000808201600090556001820160006112aa919061133e565b6002820160006112ba919061133e565b6003820160009055600482016000905560058201600090556006820160006112e2919061133e565b6007820160006101000a81549073ffffffffffffffffffffffffffffffffffffffff021916905550600801611289565b5090565b90565b61133b91905b8082111561133757600081600090555060010161131f565b5090565b90565b50805460018160011615610100020316600290046000825580601f106113645750611383565b601f0160209004906000526020600020908101906113829190611319565b5b5056fea265627a7a7231582020f0d723abb586368ba19114210631546e89172053da1ccd0c14becfeca7eda264736f6c63430005100032",
  "source": "// SPDX-License-Identifier: GPL-3.0\npragma solidity ^0.5.0;\n\n\ncontract Article{\n    \n    \n    struct Post{\n        uint id;\n        string title;\n        string description;\n        uint upVotes;\n        uint downVotes;\n        uint tipAmount;\n        string imgHash;\n        address payable author;\n        \n    }\n\n\n\n    Post[] public posts;\n\n  \n\n    function addPost(string memory _title,string memory _description,string memory _img) public{\n       posts.length++;\n        // Make sure image description exists\n        require(bytes(_description).length > 0);\n        // Make sure image title exists\n        require(bytes(_title).length > 0);\n        Post storage p = posts[posts.length - 1];\n        p.id = posts.length - 1;\n        p.author = msg.sender;\n        p.upVotes = 0;\n        p.downVotes = 0;\n        p.tipAmount =0;\n        p.title = _title;\n        p.description = _description;\n        p.imgHash = _img;\n\n    }\n\n    function upVotePost(uint postId) public{\n        posts[postId].upVotes++;\n    }\n\n    function downVotePost(uint postId) public{\n        posts[postId].downVotes++;\n    }\n\n    function getPosts(uint postId) public view returns(uint, uint, uint, string memory, string memory, address ,string memory) {\n       Post storage p = posts[postId];\n       return (p.id, p.upVotes, p.downVotes,p.title, p.description,p.author,p.imgHash);\n    }\n\n    function getPostCount() public view returns(uint){\n        return posts.length;\n    }\n\n    function tipArticleOwner(uint id) public payable{\n        //make sure author is valid\n       require(id>=0);\n        //f+etch the post\n        Post memory _post = posts[id];\n        //fetch the author\n        address payable _author = _post.author;\n        //pay the author by sending the ether\n        address(_author).transfer(msg.value);\n        _post.tipAmount = _post.tipAmount+msg.value;\n        posts[id] = _post;\n\n    }\n\n}",
  "sourcePath": "D:/newsganache/contracts/Article.sol",
  "compiler": {
    "name": "solc",
    "version": "0.5.16+commit.9c3226ce.Emscripten.clang"
  },
  "schemaVersion": "3.2.3",
  "updatedAt": "2022-03-24T12:31:13.192Z",
  "networkType": "ethereum",
  "devdoc": {
    "methods": {}
  },
  "userdoc": {
    "methods": {}
  }
}